:020000040000FA
:060000005DEF01F01200AB
:0A0006000100160000006A0000006F
:0400100002000000EA
:020014001200D8
:020016000000E8
:06001800AEEF00F0120043
:02001E00D9CF38
:10002000E6FFE1CFD9FFE652DF6AD38CD38AD388CB
:10003000936A95808A6AAAD88A80000EE66EE66A7C
:100040003ED8E552E552F350DF6EDF0405E18A90B9
:10005000310EE66EB2D8E552010EE66EE66A2FD892
:10006000E552E552F350DF6EDF0405E18A90320E6F
:10007000E66EA3D8E552020EE66EE66A20D8E55297
:10008000E552F350DF6EDF0405E18A90330EE66E31
:1000900094D8E552030EE66EE66A11D8E552E552B1
:1000A000F350DF6EDF0405E18A90340EE66E85D8EA
:1000B000E552C3D7E552E552E7CFD9FF1200D9CFB9
:1000C000E6FFE1CFD9FF020EE126010EDF6EDE5220
:1000D000DD6EDF50F36EFD0EDB5004E0D890F3369A
:1000E000E806FCE1F350DF6EDF50F36EFD0EDB50EF
:1000F00004E0D890F336E806FCE1F350E76E010E19
:10010000E7CFDBFFDF5083140FE0140EE66E3DEC0B
:1001100001F0E552DF50831406E0010EDB500001D0
:100120006B116B6F8A800DD0010EDB5000016B15D7
:1001300008E0010EDB1C6B156B6F010EF36EF46AA9
:1001400003D0F36AF46A00D0020EE15C02E2E16AD5
:10015000E552E16EE552E7CFD9FF1200DACFE4FFB6
:10016000E2CFDAFFE6529EAA0DD0060EAB1405E0F0
:10017000AB98AECF6CF0AB8805D0AECF6CF0000181
:10018000010E6A6FE552E5CFDAFF110000016A6BDC
:10019000948E949CB06A330EAF6EB896AB88AB8EDB
:1001A000AB9CAC8AAC84AC98AC9CD08E9F9A9D8A58
:1001B000F28CF28EF28EF28C1200D9CFE6FFE1CFF4
:1001C000D9FFAC9AFE0EDB50AD6EAC8AACB202D059
:0C01D0000000FCD7E552E7CFD9FF120079
:0401DC00060EF66EA7
:1001E000000EF76E000EF86E00010900F550656F05
:1001F0000900F550666F03E1656701D03DD0090045
:10020000F550606F0900F550616F0900F550626F9D
:1002100009000900F550E96E0900F550EA6E090081
:1002200009000900F550636F0900F550646F09007B
:100230000900F6CF67F0F7CF68F0F8CF69F060C03B
:10024000F6FF61C0F7FF62C0F8FF0001635302E1EF
:10025000645307E00900F550EE6E6307F8E26407A7
:10026000F9D767C0F6FF68C0F7FF69C0F8FF000163
:0A0270006507000E665BBFD71200A1
:06027A00FF0EE350026ECE
:10028000480E01D04C0EE76EE72EFED7E76AE72E48
:0A029000FED7022EF7D7000012007F
:06029A00000EF36E00EE01
:1002A00000F0080E01D81200EA6002D0EE6AFCD716
:0A02B000F350E9601200EE6AFCD77B
:0602BA0013EE00F023EE3C
:1002C00000F0F86A019CEEEC00F00AEC00F00FEC94
:0602D00000F0FBD7120054
:020000040030CA
:010001000BF3
:0100020019E4
:010003001EDE
:0100060001F8
:00000001FF
